:100000000C94C4010C94E1010C94E1010C94E10105
:100010000C94E1010C94E1010C94E1010C94E101D8
:100020000C94E1010C94E1010C94E1010C94E101C8
:100030000C94E1010C94E1010C94E1010C94E101B8
:100040000C9418020C94E1010C94E1010C94E3016E
:100050000C94E1010C94E1010C94E1010C94E10198
:100060000C94E1010C94E101000000000100C6FEC7
:1000700002008DFD030053FC04001BFB0500E4F9A6
:100080000600AFF807007BF708004AF609001BF5E9
:100090000A00EEF30B00C5F20C009FF10D007DF09D
:1000A0000E005FEF0F0045EE10002FED11001EEC6B
:1000B000120012EB13000CEA14000BE915000FE814
:1000C00016001AE717002BE6180043E5190061E453
:1000D0001A0087E31B00B3E21C00E7E11D0023E1E7
:1000E0001E0066E01F00B2DF200005DF210061DE98
:1000F0002200C5DD230032DD2400A8DC250027DC3A
:100100002600AFDB270040DB2800DADA29007EDAA0
:100110002A002BDA2B00E1D92C00A2D92D006CD9B2
:100120002E003FD92F001DD9300004D93100F5D859
:100130003200F0D83300F5D8340004D935001DD989
:1001400036003FD937006CD93800A2D93900E1D93F
:100150003A002BDA3B007EDA3C00DADA3D0040DB85
:100160003E00AFDB3F0027DC4000A8DC410032DD71
:100170004200C5DD430061DE440005DF4500B2DF1B
:10018000460066E0470023E14800E7E14900B3E2AA
:100190004A0087E34B0061E44C0043E54D002BE649
:1001A0004E001AE74F000FE850000BE951000CEA2F
:1001B000520012EB53001EEC54002FED550045EE9B
:1001C00056005FEF57007DF058009FF15900C5F2CF
:1001D0005A00EEF35B001BF55C004AF65D007BF70E
:1001E0005E00AFF85F00E4F960001BFB610053FCA8
:1001F00062008DFD6300C6FE6400000065003A01E8
:10020000660073026700AD036800E50469001C0620
:100210006A0051076B0085086C00B6096D00E50A9D
:100220006E00120C6F003B0D7000610E7100830FA9
:100230007200A1107300BB117400D1127500E2139B
:100240007600EE147700F4157800F5167900F117B2
:100250007A00E6187B00D5197C00BD1A7D009F1B33
:100260007E00791C7F004D1D8000191E8100DD1E5F
:1002700082009A1F83004E208400FB2085009F216E
:1002800086003B228700CE22880058238900D9238C
:100290008A0051248B00C0248C0026258D008225E5
:1002A0008E00D5258F001F2690005E269100942693
:1002B0009200C1269300E3269400FC2695000B27AC
:1002C0009600102797000B279800FC269900E3263C
:1002D0009A00C1269B0094269C005E269D001F2646
:1002E0009E00D5259F008225A0002625A100C024C0
:1002F000A2005124A300D923A4005823A500CE2294
:10030000A6003B22A7009F21A800FB20A9004E20A9
:10031000AA009A1FAB00DD1EAC00191EAD004D1DDA
:10032000AE00791CAF009F1BB000BD1AB100D519FB
:10033000B200E618B300F117B400F516B500F415D5
:10034000B600EE14B700E213B800D112B900BB1129
:10035000BA00A110BB00830FBC00610EBD003B0DB5
:10036000BE00120CBF00E50AC000B609C100850836
:10037000C2005107C3001C06C400E504C500AD035C
:10038000C6007302C7003A0111241FBECFEFD8E0A8
:10039000DEBFCDBF11E0A0E0B1E0ECECF4E002C0C4
:1003A00005900D92A230B107D9F721E0A2E0B1E0AB
:1003B00001C01D92A730B207E1F70E9447020C94DA
:1003C00064020C9400001F920F920FB60F9211243A
:1003D0008F93EF93FF93809104018093C600E09187
:1003E0000501F09106013196F0930601E0930501B5
:1003F000E03283E0F80734F4E859FF4FE491E093EA
:1004000004010EC01092060110920501E8E6F0E02A
:10041000E491E09304018091C100877D8093C10045
:10042000FF91EF918F910F900FBE0F901F90189535
:100430001F920F920FB60F9211248F939F9380916A
:1004400002019091030101969093030180930201B0
:100450008F719927892B11F480E283B98091020171
:10046000909103018038910558F010920301109289
:1004700002018091C10083FD03C088E28093C10026
:100480009F918F910F900FBE0F901F901895E8E6E7
:10049000F0E0E491E09304011092C0001092C100DA
:1004A00086E08093C20088E090E09093C50080933E
:1004B000C40081E085BB80936E0014BC85E085BDDF
:0C04C000259A2D987894FFCFF894FFCF78
:0204CC0020030B
:00000001FF
